{
  "contractName": "Jobs",
  "abi": [
    {
      "inputs": [
        {
          "internalType": "string",
          "name": "",
          "type": "string"
        },
        {
          "internalType": "uint256",
          "name": "",
          "type": "uint256"
        }
      ],
      "name": "cat2job",
      "outputs": [
        {
          "internalType": "uint256",
          "name": "",
          "type": "uint256"
        }
      ],
      "stateMutability": "view",
      "type": "function",
      "constant": true
    },
    {
      "inputs": [
        {
          "internalType": "address",
          "name": "",
          "type": "address"
        },
        {
          "internalType": "uint256",
          "name": "",
          "type": "uint256"
        }
      ],
      "name": "employee2job",
      "outputs": [
        {
          "internalType": "string",
          "name": "jobpicture",
          "type": "string"
        },
        {
          "internalType": "string",
          "name": "filename",
          "type": "string"
        },
        {
          "internalType": "address",
          "name": "owner",
          "type": "address"
        },
        {
          "internalType": "string",
          "name": "desc",
          "type": "string"
        },
        {
          "internalType": "bool",
          "name": "acceptStatus",
          "type": "bool"
        },
        {
          "internalType": "uint256",
          "name": "uinque_address",
          "type": "uint256"
        },
        {
          "internalType": "uint256",
          "name": "applicants_count",
          "type": "uint256"
        },
        {
          "internalType": "address",
          "name": "worker",
          "type": "address"
        },
        {
          "internalType": "bool",
          "name": "render",
          "type": "bool"
        },
        {
          "internalType": "string",
          "name": "pay",
          "type": "string"
        },
        {
          "internalType": "string",
          "name": "duration",
          "type": "string"
        },
        {
          "internalType": "string",
          "name": "jobTitle",
          "type": "string"
        }
      ],
      "stateMutability": "view",
      "type": "function",
      "constant": true
    },
    {
      "inputs": [],
      "name": "jobCount",
      "outputs": [
        {
          "internalType": "uint256",
          "name": "",
          "type": "uint256"
        }
      ],
      "stateMutability": "view",
      "type": "function",
      "constant": true
    },
    {
      "inputs": [
        {
          "internalType": "uint256",
          "name": "",
          "type": "uint256"
        }
      ],
      "name": "jobs_db",
      "outputs": [
        {
          "internalType": "string",
          "name": "jobpicture",
          "type": "string"
        },
        {
          "internalType": "string",
          "name": "filename",
          "type": "string"
        },
        {
          "internalType": "address",
          "name": "owner",
          "type": "address"
        },
        {
          "internalType": "string",
          "name": "desc",
          "type": "string"
        },
        {
          "internalType": "bool",
          "name": "acceptStatus",
          "type": "bool"
        },
        {
          "internalType": "uint256",
          "name": "uinque_address",
          "type": "uint256"
        },
        {
          "internalType": "uint256",
          "name": "applicants_count",
          "type": "uint256"
        },
        {
          "internalType": "address",
          "name": "worker",
          "type": "address"
        },
        {
          "internalType": "bool",
          "name": "render",
          "type": "bool"
        },
        {
          "internalType": "string",
          "name": "pay",
          "type": "string"
        },
        {
          "internalType": "string",
          "name": "duration",
          "type": "string"
        },
        {
          "internalType": "string",
          "name": "jobTitle",
          "type": "string"
        }
      ],
      "stateMutability": "view",
      "type": "function",
      "constant": true
    },
    {
      "inputs": [
        {
          "internalType": "address",
          "name": "",
          "type": "address"
        },
        {
          "internalType": "uint256",
          "name": "",
          "type": "uint256"
        }
      ],
      "name": "owner2uniq",
      "outputs": [
        {
          "internalType": "uint256",
          "name": "",
          "type": "uint256"
        }
      ],
      "stateMutability": "view",
      "type": "function",
      "constant": true
    },
    {
      "inputs": [
        {
          "internalType": "address",
          "name": "",
          "type": "address"
        },
        {
          "internalType": "uint256",
          "name": "",
          "type": "uint256"
        }
      ],
      "name": "ownersActive",
      "outputs": [
        {
          "internalType": "uint256",
          "name": "",
          "type": "uint256"
        }
      ],
      "stateMutability": "view",
      "type": "function",
      "constant": true
    },
    {
      "inputs": [
        {
          "internalType": "address",
          "name": "",
          "type": "address"
        },
        {
          "internalType": "uint256",
          "name": "",
          "type": "uint256"
        }
      ],
      "name": "ownersPosted",
      "outputs": [
        {
          "internalType": "uint256",
          "name": "",
          "type": "uint256"
        }
      ],
      "stateMutability": "view",
      "type": "function",
      "constant": true
    },
    {
      "inputs": [
        {
          "internalType": "address",
          "name": "",
          "type": "address"
        },
        {
          "internalType": "uint256",
          "name": "",
          "type": "uint256"
        }
      ],
      "name": "ownersPrevious",
      "outputs": [
        {
          "internalType": "uint256",
          "name": "",
          "type": "uint256"
        }
      ],
      "stateMutability": "view",
      "type": "function",
      "constant": true
    },
    {
      "inputs": [
        {
          "internalType": "string",
          "name": "des",
          "type": "string"
        },
        {
          "internalType": "string[]",
          "name": "ca",
          "type": "string[]"
        },
        {
          "internalType": "string",
          "name": "jobpic",
          "type": "string"
        },
        {
          "internalType": "string",
          "name": "filename",
          "type": "string"
        },
        {
          "internalType": "string",
          "name": "pay",
          "type": "string"
        },
        {
          "internalType": "string",
          "name": "duration",
          "type": "string"
        },
        {
          "internalType": "string",
          "name": "title",
          "type": "string"
        }
      ],
      "name": "pushD",
      "outputs": [],
      "stateMutability": "nonpayable",
      "type": "function"
    },
    {
      "inputs": [
        {
          "internalType": "uint256",
          "name": "k",
          "type": "uint256"
        }
      ],
      "name": "getDet",
      "outputs": [
        {
          "components": [
            {
              "internalType": "string",
              "name": "jobpicture",
              "type": "string"
            },
            {
              "internalType": "string",
              "name": "filename",
              "type": "string"
            },
            {
              "internalType": "address",
              "name": "owner",
              "type": "address"
            },
            {
              "internalType": "string",
              "name": "desc",
              "type": "string"
            },
            {
              "internalType": "string[]",
              "name": "cat",
              "type": "string[]"
            },
            {
              "internalType": "bool",
              "name": "acceptStatus",
              "type": "bool"
            },
            {
              "internalType": "uint256",
              "name": "uinque_address",
              "type": "uint256"
            },
            {
              "internalType": "uint256",
              "name": "applicants_count",
              "type": "uint256"
            },
            {
              "internalType": "address[]",
              "name": "applicants",
              "type": "address[]"
            },
            {
              "internalType": "address",
              "name": "worker",
              "type": "address"
            },
            {
              "internalType": "bool",
              "name": "render",
              "type": "bool"
            },
            {
              "internalType": "string",
              "name": "pay",
              "type": "string"
            },
            {
              "internalType": "string",
              "name": "duration",
              "type": "string"
            },
            {
              "internalType": "string",
              "name": "jobTitle",
              "type": "string"
            }
          ],
          "internalType": "struct Jobs.Job",
          "name": "",
          "type": "tuple"
        }
      ],
      "stateMutability": "view",
      "type": "function",
      "constant": true
    },
    {
      "inputs": [
        {
          "internalType": "uint256",
          "name": "uniq",
          "type": "uint256"
        }
      ],
      "name": "updateonApply",
      "outputs": [],
      "stateMutability": "nonpayable",
      "type": "function"
    },
    {
      "inputs": [
        {
          "internalType": "uint256",
          "name": "ind",
          "type": "uint256"
        },
        {
          "internalType": "uint256",
          "name": "uniq",
          "type": "uint256"
        }
      ],
      "name": "updateonAccept",
      "outputs": [],
      "stateMutability": "nonpayable",
      "type": "function"
    },
    {
      "inputs": [
        {
          "internalType": "uint256",
          "name": "uniq",
          "type": "uint256"
        }
      ],
      "name": "getApplicants",
      "outputs": [
        {
          "internalType": "address[]",
          "name": "",
          "type": "address[]"
        }
      ],
      "stateMutability": "view",
      "type": "function",
      "constant": true
    },
    {
      "inputs": [
        {
          "internalType": "uint256",
          "name": "jobIndex",
          "type": "uint256"
        }
      ],
      "name": "getImageInfo",
      "outputs": [
        {
          "internalType": "string[]",
          "name": "",
          "type": "string[]"
        }
      ],
      "stateMutability": "view",
      "type": "function",
      "constant": true
    },
    {
      "inputs": [
        {
          "internalType": "uint256",
          "name": "uniq",
          "type": "uint256"
        }
      ],
      "name": "taskDone",
      "outputs": [],
      "stateMutability": "nonpayable",
      "type": "function"
    },
    {
      "inputs": [
        {
          "internalType": "uint256",
          "name": "uniq",
          "type": "uint256"
        },
        {
          "internalType": "address",
          "name": "con",
          "type": "address"
        }
      ],
      "name": "GetDispJob",
      "outputs": [
        {
          "components": [
            {
              "internalType": "string",
              "name": "owner",
              "type": "string"
            },
            {
              "internalType": "string",
              "name": "desc",
              "type": "string"
            },
            {
              "internalType": "string",
              "name": "pay",
              "type": "string"
            },
            {
              "internalType": "string",
              "name": "duration",
              "type": "string"
            },
            {
              "internalType": "string",
              "name": "jobTitle",
              "type": "string"
            }
          ],
          "internalType": "struct Jobs.dispJob",
          "name": "",
          "type": "tuple"
        }
      ],
      "stateMutability": "view",
      "type": "function",
      "constant": true
    },
    {
      "inputs": [
        {
          "internalType": "uint256",
          "name": "uniq",
          "type": "uint256"
        }
      ],
      "name": "getApplicationStat",
      "outputs": [
        {
          "internalType": "bool",
          "name": "",
          "type": "bool"
        }
      ],
      "stateMutability": "view",
      "type": "function",
      "constant": true
    },
    {
      "inputs": [
        {
          "internalType": "uint256",
          "name": "uniq",
          "type": "uint256"
        }
      ],
      "name": "getRenderStat",
      "outputs": [
        {
          "internalType": "bool",
          "name": "",
          "type": "bool"
        }
      ],
      "stateMutability": "view",
      "type": "function",
      "constant": true
    },
    {
      "inputs": [
        {
          "internalType": "uint256",
          "name": "uniq",
          "type": "uint256"
        },
        {
          "internalType": "address",
          "name": "userdb",
          "type": "address"
        }
      ],
      "name": "getWorkerName",
      "outputs": [
        {
          "internalType": "string",
          "name": "",
          "type": "string"
        }
      ],
      "stateMutability": "view",
      "type": "function",
      "constant": true
    },
    {
      "inputs": [
        {
          "internalType": "string[]",
          "name": "interest",
          "type": "string[]"
        }
      ],
      "name": "GetRecommendations",
      "outputs": [
        {
          "internalType": "uint256[]",
          "name": "",
          "type": "uint256[]"
        }
      ],
      "stateMutability": "view",
      "type": "function",
      "constant": true
    },
    {
      "inputs": [],
      "name": "getAllJobs",
      "outputs": [
        {
          "internalType": "uint256[]",
          "name": "",
          "type": "uint256[]"
        }
      ],
      "stateMutability": "view",
      "type": "function",
      "constant": true
    },
    {
      "inputs": [
        {
          "internalType": "uint256",
          "name": "uniq",
          "type": "uint256"
        }
      ],
      "name": "getActiveStatus",
      "outputs": [
        {
          "internalType": "bool",
          "name": "",
          "type": "bool"
        }
      ],
      "stateMutability": "view",
      "type": "function",
      "constant": true
    },
    {
      "inputs": [
        {
          "internalType": "uint256",
          "name": "uniq",
          "type": "uint256"
        }
      ],
      "name": "getRenderStatus",
      "outputs": [
        {
          "internalType": "bool",
          "name": "",
          "type": "bool"
        }
      ],
      "stateMutability": "view",
      "type": "function",
      "constant": true
    },
    {
      "inputs": [
        {
          "internalType": "uint256",
          "name": "uniq",
          "type": "uint256"
        }
      ],
      "name": "getOwner",
      "outputs": [
        {
          "internalType": "address",
          "name": "",
          "type": "address"
        }
      ],
      "stateMutability": "view",
      "type": "function",
      "constant": true
    },
    {
      "inputs": [
        {
          "internalType": "uint256",
          "name": "uniq",
          "type": "uint256"
        }
      ],
      "name": "getInterest",
      "outputs": [
        {
          "internalType": "string[]",
          "name": "",
          "type": "string[]"
        }
      ],
      "stateMutability": "view",
      "type": "function",
      "constant": true
    },
    {
      "inputs": [
        {
          "internalType": "address",
          "name": "appl",
          "type": "address"
        },
        {
          "internalType": "uint256",
          "name": "uniq",
          "type": "uint256"
        }
      ],
      "name": "amIApplicant",
      "outputs": [
        {
          "internalType": "bool",
          "name": "",
          "type": "bool"
        }
      ],
      "stateMutability": "view",
      "type": "function",
      "constant": true
    },
    {
      "inputs": [
        {
          "internalType": "uint256",
          "name": "uniq",
          "type": "uint256"
        },
        {
          "internalType": "address",
          "name": "usersDb",
          "type": "address"
        }
      ],
      "name": "returnAppDetails",
      "outputs": [
        {
          "components": [
            {
              "internalType": "string",
              "name": "name",
              "type": "string"
            },
            {
              "internalType": "string",
              "name": "email",
              "type": "string"
            },
            {
              "internalType": "uint256",
              "name": "active",
              "type": "uint256"
            },
            {
              "internalType": "address",
              "name": "add",
              "type": "address"
            },
            {
              "internalType": "uint256",
              "name": "index",
              "type": "uint256"
            }
          ],
          "internalType": "struct Jobs.appDets[]",
          "name": "",
          "type": "tuple[]"
        }
      ],
      "stateMutability": "view",
      "type": "function",
      "constant": true
    }
  ],
  "bytecode": "0x60806040526000805534801561001457600080fd5b50614934806100246000396000f3fe608060405234801561001057600080fd5b50600436106101a95760003560e01c80636947a93d116100f9578063b7f144db11610097578063d2bc78b811610071578063d2bc78b8146105a0578063eb26a2b8146105d0578063ecc6b2fd14610600578063f97cfa7d14610630576101a9565b8063b7f144db14610505578063c41a360a14610535578063cd86671114610565576101a9565b806395f22405116100d357806395f2240514610457578063965a79fb14610487578063988cce61146104a5578063b35052d8146104d5576101a9565b80636947a93d146103bc5780636ab3c0ec146103ec5780636cf5d86e14610427576101a9565b806358740c18116101665780635c8494b9116101405780635c8494b9146103105780635fe2d6891461034057806366935872146103705780636848ea65146103a0576101a9565b806358740c18146102a8578063597ea00e146102d85780635a163bda146102f4576101a9565b806307f4ad73146101ae57806313df1ca6146101de5780632187d6461461020e5780632f565ba91461023e57806337eee78f1461025a5780634c5d8a0f1461028a575b600080fd5b6101c860048036038101906101c391906132c3565b610660565b6040516101d5919061332e565b60405180910390f35b6101f860048036038101906101f39190613349565b6106a7565b6040516102059190613391565b60405180910390f35b6102286004803603810190610223919061340a565b6106d4565b604051610235919061355b565b60405180910390f35b61025860048036038101906102539190613349565b610a47565b005b610274600480360381019061026f919061340a565b610b1c565b60405161028191906135c7565b60405180910390f35b610292610c1c565b60405161029f919061332e565b60405180910390f35b6102c260048036038101906102bd9190613349565b610c22565b6040516102cf91906138e6565b60405180910390f35b6102f260048036038101906102ed9190613349565b611219565b005b61030e60048036038101906103099190613908565b6112cf565b005b61032a60048036038101906103259190613948565b611467565b6040516103379190613391565b60405180910390f35b61035a60048036038101906103559190613349565b61153e565b6040516103679190613a0e565b60405180910390f35b61038a60048036038101906103859190613948565b61162d565b604051610397919061332e565b60405180910390f35b6103ba60048036038101906103b59190613b16565b61165e565b005b6103d660048036038101906103d19190613948565b611963565b6040516103e3919061332e565b60405180910390f35b61040660048036038101906104019190613948565b611994565b60405161041e9c9b9a99989796959493929190613c8b565b60405180910390f35b610441600480360381019061043c9190613349565b611d9b565b60405161044e9190613dde565b60405180910390f35b610471600480360381019061046c9190613349565b611e3f565b60405161047e9190613a0e565b60405180910390f35b61048f612077565b60405161049c9190613eaf565b60405180910390f35b6104bf60048036038101906104ba9190613349565b61210c565b6040516104cc9190613391565b60405180910390f35b6104ef60048036038101906104ea9190613349565b612139565b6040516104fc9190613391565b60405180910390f35b61051f600480360381019061051a9190613948565b612166565b60405161052c919061332e565b60405180910390f35b61054f600480360381019061054a9190613349565b612197565b60405161055c9190613ed1565b60405180910390f35b61057f600480360381019061057a9190613349565b6121d7565b6040516105979c9b9a99989796959493929190613c8b565b60405180910390f35b6105ba60048036038101906105b59190613eec565b6125c1565b6040516105c79190613eaf565b60405180910390f35b6105ea60048036038101906105e59190613948565b61288d565b6040516105f7919061332e565b60405180910390f35b61061a60048036038101906106159190613349565b6128be565b6040516106279190613391565b60405180910390f35b61064a6004803603810190610645919061340a565b6128eb565b6040516106579190614074565b60405180910390f35b600782805160208101820180518482526020830160208501208183528095505050505050818154811061069257600080fd5b90600052602060002001600091509150505481565b60006001600083815260200190815260200160002060050160009054906101000a900460ff169050919050565b6106dc612f46565b6106e4612f46565b8273ffffffffffffffffffffffffffffffffffffffff1663af530c6b6001600087815260200190815260200160002060020160009054906101000a900473ffffffffffffffffffffffffffffffffffffffff166040518263ffffffff1660e01b81526004016107539190613ed1565b600060405180830381865afa158015610770573d6000803e3d6000fd5b505050506040513d6000823e3d601f19601f820116820180604052508101906107999190614106565b81600001819052506001600085815260200190815260200160002060030180546107c29061417e565b80601f01602080910402602001604051908101604052809291908181526020018280546107ee9061417e565b801561083b5780601f106108105761010080835404028352916020019161083b565b820191906000526020600020905b81548152906001019060200180831161081e57829003601f168201915b5050505050816020018190525060016000858152602001908152602001600020600b0180546108699061417e565b80601f01602080910402602001604051908101604052809291908181526020018280546108959061417e565b80156108e25780601f106108b7576101008083540402835291602001916108e2565b820191906000526020600020905b8154815290600101906020018083116108c557829003601f168201915b5050505050816060018190525060016000858152602001908152602001600020600a0180546109109061417e565b80601f016020809104026020016040519081016040528092919081815260200182805461093c9061417e565b80156109895780601f1061095e57610100808354040283529160200191610989565b820191906000526020600020905b81548152906001019060200180831161096c57829003601f168201915b5050505050816040018190525060016000858152602001908152602001600020600c0180546109b79061417e565b80601f01602080910402602001604051908101604052809291908181526020018280546109e39061417e565b8015610a305780601f10610a0557610100808354040283529160200191610a30565b820191906000526020600020905b815481529060010190602001808311610a1357829003601f168201915b505050505081608001819052508091505092915050565b3373ffffffffffffffffffffffffffffffffffffffff1663be95793d826001600085815260200190815260200160002060090160009054906101000a900473ffffffffffffffffffffffffffffffffffffffff166040518363ffffffff1660e01b8152600401610ab89291906141af565b600060405180830381600087803b158015610ad257600080fd5b505af1158015610ae6573d6000803e3d6000fd5b5050505060006001600083815260200190815260200160002060090160146101000a81548160ff02191690831515021790555050565b60606001600084815260200190815260200160002060050160009054906101000a900460ff1615610c03578173ffffffffffffffffffffffffffffffffffffffff1663af530c6b6001600086815260200190815260200160002060090160009054906101000a900473ffffffffffffffffffffffffffffffffffffffff166040518263ffffffff1660e01b8152600401610bb69190613ed1565b600060405180830381865afa158015610bd3573d6000803e3d6000fd5b505050506040513d6000823e3d601f19601f82011682018060405250810190610bfc9190614106565b9050610c16565b6040518060200160405280600081525090505b92915050565b60005481565b610c2a612f75565b60016000838152602001908152602001600020604051806101c0016040529081600082018054610c599061417e565b80601f0160208091040260200160405190810160405280929190818152602001828054610c859061417e565b8015610cd25780601f10610ca757610100808354040283529160200191610cd2565b820191906000526020600020905b815481529060010190602001808311610cb557829003601f168201915b50505050508152602001600182018054610ceb9061417e565b80601f0160208091040260200160405190810160405280929190818152602001828054610d179061417e565b8015610d645780601f10610d3957610100808354040283529160200191610d64565b820191906000526020600020905b815481529060010190602001808311610d4757829003601f168201915b505050505081526020016002820160009054906101000a900473ffffffffffffffffffffffffffffffffffffffff1673ffffffffffffffffffffffffffffffffffffffff1673ffffffffffffffffffffffffffffffffffffffff168152602001600382018054610dd39061417e565b80601f0160208091040260200160405190810160405280929190818152602001828054610dff9061417e565b8015610e4c5780601f10610e2157610100808354040283529160200191610e4c565b820191906000526020600020905b815481529060010190602001808311610e2f57829003601f168201915b5050505050815260200160048201805480602002602001604051908101604052809291908181526020016000905b82821015610f26578382906000526020600020018054610e999061417e565b80601f0160208091040260200160405190810160405280929190818152602001828054610ec59061417e565b8015610f125780601f10610ee757610100808354040283529160200191610f12565b820191906000526020600020905b815481529060010190602001808311610ef557829003601f168201915b505050505081526020019060010190610e7a565b5050505081526020016005820160009054906101000a900460ff16151515158152602001600682015481526020016007820154815260200160088201805480602002602001604051908101604052809291908181526020018280548015610fe257602002820191906000526020600020905b8160009054906101000a900473ffffffffffffffffffffffffffffffffffffffff1673ffffffffffffffffffffffffffffffffffffffff1681526020019060010190808311610f98575b505050505081526020016009820160009054906101000a900473ffffffffffffffffffffffffffffffffffffffff1673ffffffffffffffffffffffffffffffffffffffff1673ffffffffffffffffffffffffffffffffffffffff1681526020016009820160149054906101000a900460ff16151515158152602001600a8201805461106c9061417e565b80601f01602080910402602001604051908101604052809291908181526020018280546110989061417e565b80156110e55780601f106110ba576101008083540402835291602001916110e5565b820191906000526020600020905b8154815290600101906020018083116110c857829003601f168201915b50505050508152602001600b820180546110fe9061417e565b80601f016020809104026020016040519081016040528092919081815260200182805461112a9061417e565b80156111775780601f1061114c57610100808354040283529160200191611177565b820191906000526020600020905b81548152906001019060200180831161115a57829003601f168201915b50505050508152602001600c820180546111909061417e565b80601f01602080910402602001604051908101604052809291908181526020018280546111bc9061417e565b80156112095780601f106111de57610100808354040283529160200191611209565b820191906000526020600020905b8154815290600101906020018083116111ec57829003601f168201915b5050505050815250509050919050565b60018060008381526020019081526020016000206007015461123b9190614207565b600160008381526020019081526020016000206007018190555060016000828152602001908152602001600020600801329080600181540180825580915050600190039060005260206000200160009091909190916101000a81548173ffffffffffffffffffffffffffffffffffffffff021916908373ffffffffffffffffffffffffffffffffffffffff16021790555050565b3373ffffffffffffffffffffffffffffffffffffffff1663c7f1148b826001600085815260200190815260200160002060080185815481106113145761131361423b565b5b9060005260206000200160009054906101000a900473ffffffffffffffffffffffffffffffffffffffff166040518363ffffffff1660e01b815260040161135c9291906141af565b600060405180830381600087803b15801561137657600080fd5b505af115801561138a573d6000803e3d6000fd5b505050506001600082815260200190815260200160002060080182815481106113b6576113b561423b565b5b9060005260206000200160009054906101000a900473ffffffffffffffffffffffffffffffffffffffff166001600083815260200190815260200160002060090160006101000a81548173ffffffffffffffffffffffffffffffffffffffff021916908373ffffffffffffffffffffffffffffffffffffffff160217905550600180600083815260200190815260200160002060050160006101000a81548160ff0219169083151502179055505050565b600080600090505b6001600084815260200190815260200160002060080180549050811015611532576001600084815260200190815260200160002060080181815481106114b8576114b761423b565b5b9060005260206000200160009054906101000a900473ffffffffffffffffffffffffffffffffffffffff1673ffffffffffffffffffffffffffffffffffffffff168473ffffffffffffffffffffffffffffffffffffffff160361151f576001915050611538565b808061152a9061426a565b91505061146f565b50600090505b92915050565b606060016000838152602001908152602001600020600401805480602002602001604051908101604052809291908181526020016000905b828210156116225783829060005260206000200180546115959061417e565b80601f01602080910402602001604051908101604052809291908181526020018280546115c19061417e565b801561160e5780601f106115e35761010080835404028352916020019161160e565b820191906000526020600020905b8154815290600101906020018083116115f157829003601f168201915b505050505081526020019060010190611576565b505050509050919050565b6003602052816000526040600020818154811061164957600080fd5b90600052602060002001600091509150505481565b32600160008054815260200190815260200160002060020160006101000a81548173ffffffffffffffffffffffffffffffffffffffff021916908373ffffffffffffffffffffffffffffffffffffffff16021790555086600160008054815260200190815260200160002060030190816116d8919061445e565b508560016000805481526020019081526020016000206004019080519060200190611704929190613014565b506000600160008054815260200190815260200160002060050160006101000a81548160ff02191690831515021790555060005460016000805481526020019081526020016000206006018190555060006001600080548152602001908152602001600020600701819055508460016000805481526020019081526020016000206000019081611794919061445e565b5060018060008054815260200190815260200160002060090160146101000a81548160ff021916908315150217905550816001600080548152602001908152602001600020600b0190816117e8919061445e565b50826001600080548152602001908152602001600020600a01908161180d919061445e565b50806001600080548152602001908152602001600020600c019081611832919061445e565b508360016000805481526020019081526020016000206001019081611857919061445e565b5060005b86518110156118d85760078782815181106118795761187861423b565b5b602002602001015160405161188e919061456c565b9081526020016040518091039020600054908060018154018082558091505060019003906000526020600020016000909190919091505580806118d09061426a565b91505061185b565b50600360003273ffffffffffffffffffffffffffffffffffffffff1673ffffffffffffffffffffffffffffffffffffffff168152602001908152602001600020600054908060018154018082558091505060019003906000526020600020016000909190919091505560016000808282546119539190614207565b9250508190555050505050505050565b6004602052816000526040600020818154811061197f57600080fd5b90600052602060002001600091509150505481565b600260205281600052604060002081815481106119b057600080fd5b90600052602060002090600d0201600091509150508060000180546119d49061417e565b80601f0160208091040260200160405190810160405280929190818152602001828054611a009061417e565b8015611a4d5780601f10611a2257610100808354040283529160200191611a4d565b820191906000526020600020905b815481529060010190602001808311611a3057829003601f168201915b505050505090806001018054611a629061417e565b80601f0160208091040260200160405190810160405280929190818152602001828054611a8e9061417e565b8015611adb5780601f10611ab057610100808354040283529160200191611adb565b820191906000526020600020905b815481529060010190602001808311611abe57829003601f168201915b5050505050908060020160009054906101000a900473ffffffffffffffffffffffffffffffffffffffff1690806003018054611b169061417e565b80601f0160208091040260200160405190810160405280929190818152602001828054611b429061417e565b8015611b8f5780601f10611b6457610100808354040283529160200191611b8f565b820191906000526020600020905b815481529060010190602001808311611b7257829003601f168201915b5050505050908060050160009054906101000a900460ff16908060060154908060070154908060090160009054906101000a900473ffffffffffffffffffffffffffffffffffffffff16908060090160149054906101000a900460ff169080600a018054611bfc9061417e565b80601f0160208091040260200160405190810160405280929190818152602001828054611c289061417e565b8015611c755780601f10611c4a57610100808354040283529160200191611c75565b820191906000526020600020905b815481529060010190602001808311611c5857829003601f168201915b50505050509080600b018054611c8a9061417e565b80601f0160208091040260200160405190810160405280929190818152602001828054611cb69061417e565b8015611d035780601f10611cd857610100808354040283529160200191611d03565b820191906000526020600020905b815481529060010190602001808311611ce657829003601f168201915b50505050509080600c018054611d189061417e565b80601f0160208091040260200160405190810160405280929190818152602001828054611d449061417e565b8015611d915780601f10611d6657610100808354040283529160200191611d91565b820191906000526020600020905b815481529060010190602001808311611d7457829003601f168201915b505050505090508c565b606060016000838152602001908152602001600020600801805480602002602001604051908101604052809291908181526020018280548015611e3357602002820191906000526020600020905b8160009054906101000a900473ffffffffffffffffffffffffffffffffffffffff1673ffffffffffffffffffffffffffffffffffffffff1681526020019060010190808311611de9575b50505050509050919050565b60606000600367ffffffffffffffff811115611e5e57611e5d613162565b5b604051908082528060200260200182016040528015611e9157816020015b6060815260200190600190039081611e7c5790505b509050600160008481526020019081526020016000206000018054611eb59061417e565b80601f0160208091040260200160405190810160405280929190818152602001828054611ee19061417e565b8015611f2e5780601f10611f0357610100808354040283529160200191611f2e565b820191906000526020600020905b815481529060010190602001808311611f1157829003601f168201915b505050505081600081518110611f4757611f4661423b565b5b6020026020010181905250611f916001600085815260200190815260200160002060020160009054906101000a900473ffffffffffffffffffffffffffffffffffffffff16612d3d565b81600181518110611fa557611fa461423b565b5b6020026020010181905250600160008481526020019081526020016000206001018054611fd19061417e565b80601f0160208091040260200160405190810160405280929190818152602001828054611ffd9061417e565b801561204a5780601f1061201f5761010080835404028352916020019161204a565b820191906000526020600020905b81548152906001019060200180831161202d57829003601f168201915b5050505050816002815181106120635761206261423b565b5b602002602001018190525080915050919050565b6060600360003373ffffffffffffffffffffffffffffffffffffffff1673ffffffffffffffffffffffffffffffffffffffff16815260200190815260200160002080548060200260200160405190810160405280929190818152602001828054801561210257602002820191906000526020600020905b8154815260200190600101908083116120ee575b5050505050905090565b60006001600083815260200190815260200160002060090160149054906101000a900460ff169050919050565b60006001600083815260200190815260200160002060090160149054906101000a900460ff169050919050565b6005602052816000526040600020818154811061218257600080fd5b90600052602060002001600091509150505481565b60006001600083815260200190815260200160002060020160009054906101000a900473ffffffffffffffffffffffffffffffffffffffff169050919050565b60016020528060005260406000206000915090508060000180546121fa9061417e565b80601f01602080910402602001604051908101604052809291908181526020018280546122269061417e565b80156122735780601f1061224857610100808354040283529160200191612273565b820191906000526020600020905b81548152906001019060200180831161225657829003601f168201915b5050505050908060010180546122889061417e565b80601f01602080910402602001604051908101604052809291908181526020018280546122b49061417e565b80156123015780601f106122d657610100808354040283529160200191612301565b820191906000526020600020905b8154815290600101906020018083116122e457829003601f168201915b5050505050908060020160009054906101000a900473ffffffffffffffffffffffffffffffffffffffff169080600301805461233c9061417e565b80601f01602080910402602001604051908101604052809291908181526020018280546123689061417e565b80156123b55780601f1061238a576101008083540402835291602001916123b5565b820191906000526020600020905b81548152906001019060200180831161239857829003601f168201915b5050505050908060050160009054906101000a900460ff16908060060154908060070154908060090160009054906101000a900473ffffffffffffffffffffffffffffffffffffffff16908060090160149054906101000a900460ff169080600a0180546124229061417e565b80601f016020809104026020016040519081016040528092919081815260200182805461244e9061417e565b801561249b5780601f106124705761010080835404028352916020019161249b565b820191906000526020600020905b81548152906001019060200180831161247e57829003601f168201915b50505050509080600b0180546124b09061417e565b80601f01602080910402602001604051908101604052809291908181526020018280546124dc9061417e565b80156125295780601f106124fe57610100808354040283529160200191612529565b820191906000526020600020905b81548152906001019060200180831161250c57829003601f168201915b50505050509080600c01805461253e9061417e565b80601f016020809104026020016040519081016040528092919081815260200182805461256a9061417e565b80156125b75780601f1061258c576101008083540402835291602001916125b7565b820191906000526020600020905b81548152906001019060200180831161259a57829003601f168201915b505050505090508c565b6060600082519050600080600667ffffffffffffffff8111156125e7576125e6613162565b5b6040519080825280602002602001820160405280156126155781602001602082028036833780820191505090505b50905060005b8381101561283d5760005b600787838151811061263b5761263a61423b565b5b6020026020010151604051612650919061456c565b908152602001604051809103902080549050811015612829576001600060078985815181106126825761268161423b565b5b6020026020010151604051612697919061456c565b908152602001604051809103902083815481106126b7576126b661423b565b5b9060005260206000200154815260200190815260200160002060020160009054906101000a900473ffffffffffffffffffffffffffffffffffffffff1673ffffffffffffffffffffffffffffffffffffffff163373ffffffffffffffffffffffffffffffffffffffff16146128165761278433600789858151811061273f5761273e61423b565b5b6020026020010151604051612754919061456c565b908152602001604051809103902083815481106127745761277361423b565b5b9060005260206000200154611467565b61281557600787838151811061279d5761279c61423b565b5b60200260200101516040516127b2919061456c565b908152602001604051809103902081815481106127d2576127d161423b565b5b90600052602060002001548385815181106127f0576127ef61423b565b5b6020026020010181815250506001846128099190614207565b93506006840315612829575b5b80806128219061426a565b915050612626565b5080806128359061426a565b91505061261b565b5060008290505b60068110156128815760458282815181106128625761286161423b565b5b60200260200101818152505080806128799061426a565b915050612844565b50809350505050919050565b600660205281600052604060002081815481106128a957600080fd5b90600052602060002001600091509150505481565b60006001600083815260200190815260200160002060050160009054906101000a900460ff169050919050565b60606000600160008581526020019081526020016000206008018054905067ffffffffffffffff81111561292257612921613162565b5b60405190808252806020026020018201604052801561295b57816020015b61294861306d565b8152602001906001900390816129405790505b50905060005b6001600086815260200190815260200160002060080180549050811015612d32578373ffffffffffffffffffffffffffffffffffffffff1663af530c6b6001600088815260200190815260200160002060080183815481106129c6576129c561423b565b5b9060005260206000200160009054906101000a900473ffffffffffffffffffffffffffffffffffffffff166040518263ffffffff1660e01b8152600401612a0d9190613ed1565b600060405180830381865afa158015612a2a573d6000803e3d6000fd5b505050506040513d6000823e3d601f19601f82011682018060405250810190612a539190614106565b828281518110612a6657612a6561423b565b5b6020026020010151600001819052508373ffffffffffffffffffffffffffffffffffffffff1663abbefaee600160008881526020019081526020016000206008018381548110612ab957612ab861423b565b5b9060005260206000200160009054906101000a900473ffffffffffffffffffffffffffffffffffffffff166040518263ffffffff1660e01b8152600401612b009190613ed1565b600060405180830381865afa158015612b1d573d6000803e3d6000fd5b505050506040513d6000823e3d601f19601f82011682018060405250810190612b469190614106565b828281518110612b5957612b5861423b565b5b602002602001015160200181905250600160008681526020019081526020016000206008018181548110612b9057612b8f61423b565b5b9060005260206000200160009054906101000a900473ffffffffffffffffffffffffffffffffffffffff16828281518110612bce57612bcd61423b565b5b60200260200101516060019073ffffffffffffffffffffffffffffffffffffffff16908173ffffffffffffffffffffffffffffffffffffffff16815250508373ffffffffffffffffffffffffffffffffffffffff16637d5433d9600160008881526020019081526020016000206008018381548110612c5057612c4f61423b565b5b9060005260206000200160009054906101000a900473ffffffffffffffffffffffffffffffffffffffff166040518263ffffffff1660e01b8152600401612c979190613ed1565b602060405180830381865afa158015612cb4573d6000803e3d6000fd5b505050506040513d601f19601f82011682018060405250810190612cd89190614598565b828281518110612ceb57612cea61423b565b5b6020026020010151604001818152505080828281518110612d0f57612d0e61423b565b5b602002602001015160800181815250508080612d2a9061426a565b915050612961565b508091505092915050565b60606000602867ffffffffffffffff811115612d5c57612d5b613162565b5b6040519080825280601f01601f191660200182016040528015612d8e5781602001600182028036833780820191505090505b50905060005b6014811015612ef6576000816013612dac91906145c5565b6008612db891906145f9565b6002612dc4919061476e565b8573ffffffffffffffffffffffffffffffffffffffff16612de591906147e8565b60f81b9050600060108260f81c612dfc9190614826565b60f81b905060008160f81c6010612e139190614857565b8360f81c612e219190614894565b60f81b9050612e2f82612f00565b85856002612e3d91906145f9565b81518110612e4e57612e4d61423b565b5b60200101907effffffffffffffffffffffffffffffffffffffffffffffffffffffffffffff1916908160001a905350612e8681612f00565b856001866002612e9691906145f9565b612ea09190614207565b81518110612eb157612eb061423b565b5b60200101907effffffffffffffffffffffffffffffffffffffffffffffffffffffffffffff1916908160001a9053505050508080612eee9061426a565b915050612d94565b5080915050919050565b6000600a8260f81c60ff161015612f2b5760308260f81c612f2191906148c9565b60f81b9050612f41565b60578260f81c612f3b91906148c9565b60f81b90505b919050565b6040518060a0016040528060608152602001606081526020016060815260200160608152602001606081525090565b604051806101c001604052806060815260200160608152602001600073ffffffffffffffffffffffffffffffffffffffff1681526020016060815260200160608152602001600015158152602001600081526020016000815260200160608152602001600073ffffffffffffffffffffffffffffffffffffffff1681526020016000151581526020016060815260200160608152602001606081525090565b82805482825590600052602060002090810192821561305c579160200282015b8281111561305b57825182908161304b919061445e565b5091602001919060010190613034565b5b50905061306991906130b2565b5090565b6040518060a00160405280606081526020016060815260200160008152602001600073ffffffffffffffffffffffffffffffffffffffff168152602001600081525090565b5b808211156130d257600081816130c991906130d6565b506001016130b3565b5090565b5080546130e29061417e565b6000825580601f106130f45750613113565b601f0160209004906000526020600020908101906131129190613116565b5b50565b5b8082111561312f576000816000905550600101613117565b5090565b6000604051905090565b600080fd5b600080fd5b600080fd5b600080fd5b6000601f19601f8301169050919050565b7f4e487b7100000000000000000000000000000000000000000000000000000000600052604160045260246000fd5b61319a82613151565b810181811067ffffffffffffffff821117156131b9576131b8613162565b5b80604052505050565b60006131cc613133565b90506131d88282613191565b919050565b600067ffffffffffffffff8211156131f8576131f7613162565b5b61320182613151565b9050602081019050919050565b82818337600083830152505050565b600061323061322b846131dd565b6131c2565b90508281526020810184848401111561324c5761324b61314c565b5b61325784828561320e565b509392505050565b600082601f83011261327457613273613147565b5b813561328484826020860161321d565b91505092915050565b6000819050919050565b6132a08161328d565b81146132ab57600080fd5b50565b6000813590506132bd81613297565b92915050565b600080604083850312156132da576132d961313d565b5b600083013567ffffffffffffffff8111156132f8576132f7613142565b5b6133048582860161325f565b9250506020613315858286016132ae565b9150509250929050565b6133288161328d565b82525050565b6000602082019050613343600083018461331f565b92915050565b60006020828403121561335f5761335e61313d565b5b600061336d848285016132ae565b91505092915050565b60008115159050919050565b61338b81613376565b82525050565b60006020820190506133a66000830184613382565b92915050565b600073ffffffffffffffffffffffffffffffffffffffff82169050919050565b60006133d7826133ac565b9050919050565b6133e7816133cc565b81146133f257600080fd5b50565b600081359050613404816133de565b92915050565b600080604083850312156134215761342061313d565b5b600061342f858286016132ae565b9250506020613440858286016133f5565b9150509250929050565b600081519050919050565b600082825260208201905092915050565b60005b83811015613484578082015181840152602081019050613469565b60008484015250505050565b600061349b8261344a565b6134a58185613455565b93506134b5818560208601613466565b6134be81613151565b840191505092915050565b600060a08301600083015184820360008601526134e68282613490565b915050602083015184820360208601526135008282613490565b9150506040830151848203604086015261351a8282613490565b915050606083015184820360608601526135348282613490565b9150506080830151848203608086015261354e8282613490565b9150508091505092915050565b6000602082019050818103600083015261357581846134c9565b905092915050565b600082825260208201905092915050565b60006135998261344a565b6135a3818561357d565b93506135b3818560208601613466565b6135bc81613151565b840191505092915050565b600060208201905081810360008301526135e1818461358e565b905092915050565b6135f2816133cc565b82525050565b600081519050919050565b600082825260208201905092915050565b6000819050602082019050919050565b60006136308383613490565b905092915050565b6000602082019050919050565b6000613650826135f8565b61365a8185613603565b93508360208202850161366c85613614565b8060005b858110156136a857848403895281516136898582613624565b945061369483613638565b925060208a01995050600181019050613670565b50829750879550505050505092915050565b6136c381613376565b82525050565b6136d28161328d565b82525050565b600081519050919050565b600082825260208201905092915050565b6000819050602082019050919050565b600061371083836135e9565b60208301905092915050565b6000602082019050919050565b6000613734826136d8565b61373e81856136e3565b9350613749836136f4565b8060005b8381101561377a5781516137618882613704565b975061376c8361371c565b92505060018101905061374d565b5085935050505092915050565b60006101c08301600083015184820360008601526137a58282613490565b915050602083015184820360208601526137bf8282613490565b91505060408301516137d460408601826135e9565b50606083015184820360608601526137ec8282613490565b915050608083015184820360808601526138068282613645565b91505060a083015161381b60a08601826136ba565b5060c083015161382e60c08601826136c9565b5060e083015161384160e08601826136c9565b5061010083015184820361010086015261385b8282613729565b9150506101208301516138726101208601826135e9565b506101408301516138876101408601826136ba565b506101608301518482036101608601526138a18282613490565b9150506101808301518482036101808601526138bd8282613490565b9150506101a08301518482036101a08601526138d98282613490565b9150508091505092915050565b600060208201905081810360008301526139008184613787565b905092915050565b6000806040838503121561391f5761391e61313d565b5b600061392d858286016132ae565b925050602061393e858286016132ae565b9150509250929050565b6000806040838503121561395f5761395e61313d565b5b600061396d858286016133f5565b925050602061397e858286016132ae565b9150509250929050565b600082825260208201905092915050565b60006139a4826135f8565b6139ae8185613988565b9350836020820285016139c085613614565b8060005b858110156139fc57848403895281516139dd8582613624565b94506139e883613638565b925060208a019950506001810190506139c4565b50829750879550505050505092915050565b60006020820190508181036000830152613a288184613999565b905092915050565b600067ffffffffffffffff821115613a4b57613a4a613162565b5b602082029050602081019050919050565b600080fd5b6000613a74613a6f84613a30565b6131c2565b90508083825260208201905060208402830185811115613a9757613a96613a5c565b5b835b81811015613ade57803567ffffffffffffffff811115613abc57613abb613147565b5b808601613ac9898261325f565b85526020850194505050602081019050613a99565b5050509392505050565b600082601f830112613afd57613afc613147565b5b8135613b0d848260208601613a61565b91505092915050565b600080600080600080600060e0888a031215613b3557613b3461313d565b5b600088013567ffffffffffffffff811115613b5357613b52613142565b5b613b5f8a828b0161325f565b975050602088013567ffffffffffffffff811115613b8057613b7f613142565b5b613b8c8a828b01613ae8565b965050604088013567ffffffffffffffff811115613bad57613bac613142565b5b613bb98a828b0161325f565b955050606088013567ffffffffffffffff811115613bda57613bd9613142565b5b613be68a828b0161325f565b945050608088013567ffffffffffffffff811115613c0757613c06613142565b5b613c138a828b0161325f565b93505060a088013567ffffffffffffffff811115613c3457613c33613142565b5b613c408a828b0161325f565b92505060c088013567ffffffffffffffff811115613c6157613c60613142565b5b613c6d8a828b0161325f565b91505092959891949750929550565b613c85816133cc565b82525050565b6000610180820190508181036000830152613ca6818f61358e565b90508181036020830152613cba818e61358e565b9050613cc9604083018d613c7c565b8181036060830152613cdb818c61358e565b9050613cea608083018b613382565b613cf760a083018a61331f565b613d0460c083018961331f565b613d1160e0830188613c7c565b613d1f610100830187613382565b818103610120830152613d32818661358e565b9050818103610140830152613d47818561358e565b9050818103610160830152613d5c818461358e565b90509d9c50505050505050505050505050565b600082825260208201905092915050565b6000613d8b826136d8565b613d958185613d6f565b9350613da0836136f4565b8060005b83811015613dd1578151613db88882613704565b9750613dc38361371c565b925050600181019050613da4565b5085935050505092915050565b60006020820190508181036000830152613df88184613d80565b905092915050565b600081519050919050565b600082825260208201905092915050565b6000819050602082019050919050565b6000613e3883836136c9565b60208301905092915050565b6000602082019050919050565b6000613e5c82613e00565b613e668185613e0b565b9350613e7183613e1c565b8060005b83811015613ea2578151613e898882613e2c565b9750613e9483613e44565b925050600181019050613e75565b5085935050505092915050565b60006020820190508181036000830152613ec98184613e51565b905092915050565b6000602082019050613ee66000830184613c7c565b92915050565b600060208284031215613f0257613f0161313d565b5b600082013567ffffffffffffffff811115613f2057613f1f613142565b5b613f2c84828501613ae8565b91505092915050565b600081519050919050565b600082825260208201905092915050565b6000819050602082019050919050565b600060a0830160008301518482036000860152613f7e8282613490565b91505060208301518482036020860152613f988282613490565b9150506040830151613fad60408601826136c9565b506060830151613fc060608601826135e9565b506080830151613fd360808601826136c9565b508091505092915050565b6000613fea8383613f61565b905092915050565b6000602082019050919050565b600061400a82613f35565b6140148185613f40565b93508360208202850161402685613f51565b8060005b8581101561406257848403895281516140438582613fde565b945061404e83613ff2565b925060208a0199505060018101905061402a565b50829750879550505050505092915050565b6000602082019050818103600083015261408e8184613fff565b905092915050565b60006140a96140a4846131dd565b6131c2565b9050828152602081018484840111156140c5576140c461314c565b5b6140d0848285613466565b509392505050565b600082601f8301126140ed576140ec613147565b5b81516140fd848260208601614096565b91505092915050565b60006020828403121561411c5761411b61313d565b5b600082015167ffffffffffffffff81111561413a57614139613142565b5b614146848285016140d8565b91505092915050565b7f4e487b7100000000000000000000000000000000000000000000000000000000600052602260045260246000fd5b6000600282049050600182168061419657607f821691505b6020821081036141a9576141a861414f565b5b50919050565b60006040820190506141c4600083018561331f565b6141d16020830184613c7c565b9392505050565b7f4e487b7100000000000000000000000000000000000000000000000000000000600052601160045260246000fd5b60006142128261328d565b915061421d8361328d565b9250828201905080821115614235576142346141d8565b5b92915050565b7f4e487b7100000000000000000000000000000000000000000000000000000000600052603260045260246000fd5b60006142758261328d565b91507fffffffffffffffffffffffffffffffffffffffffffffffffffffffffffffffff82036142a7576142a66141d8565b5b600182019050919050565b60008190508160005260206000209050919050565b60006020601f8301049050919050565b600082821b905092915050565b6000600883026143147fffffffffffffffffffffffffffffffffffffffffffffffffffffffffffffffff826142d7565b61431e86836142d7565b95508019841693508086168417925050509392505050565b6000819050919050565b600061435b6143566143518461328d565b614336565b61328d565b9050919050565b6000819050919050565b61437583614340565b61438961438182614362565b8484546142e4565b825550505050565b600090565b61439e614391565b6143a981848461436c565b505050565b5b818110156143cd576143c2600082614396565b6001810190506143af565b5050565b601f821115614412576143e3816142b2565b6143ec846142c7565b810160208510156143fb578190505b61440f614407856142c7565b8301826143ae565b50505b505050565b600082821c905092915050565b600061443560001984600802614417565b1980831691505092915050565b600061444e8383614424565b9150826002028217905092915050565b6144678261344a565b67ffffffffffffffff8111156144805761447f613162565b5b61448a825461417e565b6144958282856143d1565b600060209050601f8311600181146144c857600084156144b6578287015190505b6144c08582614442565b865550614528565b601f1984166144d6866142b2565b60005b828110156144fe578489015182556001820191506020850194506020810190506144d9565b8683101561451b5784890151614517601f891682614424565b8355505b6001600288020188555050505b505050505050565b600081905092915050565b60006145468261344a565b6145508185614530565b9350614560818560208601613466565b80840191505092915050565b6000614578828461453b565b915081905092915050565b60008151905061459281613297565b92915050565b6000602082840312156145ae576145ad61313d565b5b60006145bc84828501614583565b91505092915050565b60006145d08261328d565b91506145db8361328d565b92508282039050818111156145f3576145f26141d8565b5b92915050565b60006146048261328d565b915061460f8361328d565b925082820261461d8161328d565b91508282048414831517614634576146336141d8565b5b5092915050565b60008160011c9050919050565b6000808291508390505b60018511156146925780860481111561466e5761466d6141d8565b5b600185161561467d5780820291505b808102905061468b8561463b565b9450614652565b94509492505050565b6000826146ab5760019050614767565b816146b95760009050614767565b81600181146146cf57600281146146d957614708565b6001915050614767565b60ff8411156146eb576146ea6141d8565b5b8360020a915084821115614702576147016141d8565b5b50614767565b5060208310610133831016604e8410600b841016171561473d5782820a905083811115614738576147376141d8565b5b614767565b61474a8484846001614648565b92509050818404811115614761576147606141d8565b5b81810290505b9392505050565b60006147798261328d565b91506147848361328d565b92506147b17fffffffffffffffffffffffffffffffffffffffffffffffffffffffffffffffff848461469b565b905092915050565b7f4e487b7100000000000000000000000000000000000000000000000000000000600052601260045260246000fd5b60006147f38261328d565b91506147fe8361328d565b92508261480e5761480d6147b9565b5b828204905092915050565b600060ff82169050919050565b600061483182614819565b915061483c83614819565b92508261484c5761484b6147b9565b5b828204905092915050565b600061486282614819565b915061486d83614819565b925082820261487b81614819565b915080821461488d5761488c6141d8565b5b5092915050565b600061489f82614819565b91506148aa83614819565b9250828203905060ff8111156148c3576148c26141d8565b5b92915050565b60006148d482614819565b91506148df83614819565b9250828201905060ff8111156148f8576148f76141d8565b5b9291505056fea26469706673582212205f6a97a9a3ca9fcadaf6df8624d13f8f8afb3df2eb004703909354ecc39c47a764736f6c63430008120033",
  "immutableReferences": {},
  "source": "// SPDX-License-Identifier: GPL-3.0\r\npragma solidity >=0.4.21 <0.9.0;\r\nimport './Users.sol';\r\n\r\ncontract Jobs {\r\n    uint public jobCount = 0;\r\n\r\n    struct Job {\r\n        string jobpicture;\r\n        string filename;\r\n        address owner;\r\n        string desc;\r\n        string[] cat;\r\n        bool acceptStatus;\r\n        uint256 uinque_address;\r\n        uint256 applicants_count;\r\n        address[] applicants;\r\n        address worker;\r\n        bool render;\r\n        string pay;\r\n        string duration;\r\n        string jobTitle;\r\n    }\r\n\r\n    struct dispJob {\r\n        string owner;\r\n        string desc;\r\n        string pay;\r\n        string duration;\r\n        string jobTitle;\r\n    }\r\n\r\n    struct appDets{\r\n        string name;\r\n        string email;\r\n        uint256 active;\r\n        address add;\r\n        uint256 index;\r\n    }\r\n\r\n    mapping(uint => Job) public jobs_db;\r\n\r\n    mapping(address => Job[]) public employee2job;\r\n    mapping(address => uint256[]) public owner2uniq;\r\n    mapping(address => uint256[]) public ownersActive;\r\n    mapping(address => uint256[]) public ownersPosted;\r\n    mapping(address => uint256[]) public ownersPrevious;\r\n    mapping(string => uint256[]) public cat2job;\r\n\r\n    function pushD(string memory des, string[] memory ca,string memory jobpic,string memory filename,string memory pay,string memory duration,string memory title) public{\r\n        jobs_db[jobCount].owner = tx.origin;\r\n        jobs_db[jobCount].desc = des;\r\n        jobs_db[jobCount].cat = ca;\r\n        jobs_db[jobCount].acceptStatus = false;\r\n        jobs_db[jobCount].uinque_address = jobCount;\r\n        jobs_db[jobCount].applicants_count = 0;\r\n        jobs_db[jobCount].jobpicture = jobpic;\r\n        jobs_db[jobCount].render = true;\r\n        jobs_db[jobCount].duration = duration;\r\n        jobs_db[jobCount].pay = pay;\r\n        jobs_db[jobCount].jobTitle = title;\r\n        jobs_db[jobCount].filename = filename;\r\n\r\n        for(uint256 i=0;i<ca.length;i++){\r\n            cat2job[ca[i]].push(jobCount);\r\n        }\r\n        owner2uniq[tx.origin].push(jobCount);\r\n        jobCount += 1;\r\n    }\r\n\r\n    //Credits [Only This function]: Stackoverflow\r\n    function toString(address x) internal pure returns (string memory) {\r\n        bytes memory s = new bytes(40);\r\n        for (uint i = 0; i < 20; i++) {\r\n            bytes1 b = bytes1(uint8(uint(uint160(x)) / (2**(8*(19 - i)))));\r\n            bytes1 hi = bytes1(uint8(b) / 16);\r\n            bytes1 lo = bytes1(uint8(b) - 16 * uint8(hi));\r\n            s[2*i] = char(hi);\r\n            s[2*i+1] = char(lo);            \r\n        }\r\n        return string(s);\r\n    }\r\n\r\n    function char(bytes1 b) internal pure returns (bytes1 c) {\r\n        if (uint8(b) < 10) return bytes1(uint8(b) + 0x30);\r\n        else return bytes1(uint8(b) + 0x57);\r\n    }\r\n    function getDet(uint256 k) public view returns (Job memory) {\r\n        return jobs_db[k];\r\n   }\r\n\r\n   function updateonApply(uint256 uniq) public {\r\n       jobs_db[uniq].applicants_count = jobs_db[uniq].applicants_count + 1; \r\n       jobs_db[uniq].applicants.push(tx.origin);\r\n   }\r\n\r\n    function updateonAccept(uint256 ind, uint256 uniq) public {\r\n        Users(msg.sender).UpdateJobStatus(uniq,jobs_db[uniq].applicants[ind]);\r\n        jobs_db[uniq].worker = jobs_db[uniq].applicants[ind];\r\n        jobs_db[uniq].acceptStatus = true;\r\n    }\r\n\r\n    function getApplicants(uint256 uniq) public view returns(address[] memory){\r\n        return jobs_db[uniq].applicants;\r\n    }\r\n\r\n    function getImageInfo(uint256 jobIndex) public view returns(string[] memory){\r\n        string[] memory images = new string[](3);\r\n        images[0] = jobs_db[jobIndex].jobpicture;\r\n        images[1] = toString(jobs_db[jobIndex].owner);\r\n        images[2] = jobs_db[jobIndex].filename;\r\n        return images;\r\n    }\r\n    function taskDone(uint256 uniq) public {\r\n        Users(msg.sender).CloseJobStatus(uniq,jobs_db[uniq].worker);\r\n        jobs_db[uniq].render = false;\r\n    }\r\n\r\n    function GetDispJob(uint256 uniq,address con) public view returns(dispJob memory){\r\n        dispJob memory dj;\r\n        dj.owner = Users(con).GetUName(jobs_db[uniq].owner);\r\n        dj.desc = jobs_db[uniq].desc;\r\n        dj.duration = jobs_db[uniq].duration;\r\n        dj.pay = jobs_db[uniq].pay;\r\n        dj.jobTitle = jobs_db[uniq].jobTitle;\r\n        return dj;\r\n    }\r\n\r\n    function getApplicationStat(uint256 uniq) public view returns(bool){\r\n        return jobs_db[uniq].acceptStatus;\r\n    }\r\n\r\n    function getRenderStat(uint256 uniq) public view returns(bool){\r\n        return jobs_db[uniq].render;\r\n    }\r\n\r\n    function getWorkerName(uint256 uniq,address userdb) public view returns(string memory){\r\n        if(jobs_db[uniq].acceptStatus){\r\n            return Users(userdb).GetUName(jobs_db[uniq].worker);\r\n        }\r\n        return '';\r\n    }\r\n\r\n    function GetRecommendations(string[] memory interest) public view returns(uint256[] memory){\r\n        uint count = interest.length;\r\n        uint recoms = 0;\r\n        uint256[] memory recs = new uint256[](6);\r\n        for(uint i=0;i<count;i++){\r\n            for(uint j=0;j<cat2job[interest[i]].length;j++){\r\n                if(msg.sender!=jobs_db[cat2job[interest[i]][j]].owner){\r\n                    if(!amIApplicant(msg.sender, cat2job[interest[i]][j])){\r\n                        recs[recoms] =(cat2job[interest[i]][j]);\r\n                        recoms = recoms+1;\r\n                        if(recoms == 6){\r\n                            break;\r\n                        }\r\n                    }\r\n                }\r\n            }\r\n        }\r\n        for(uint i=recoms;i<6;i++){\r\n            recs[i] = 69;\r\n        }\r\n        return recs;\r\n    }\r\n\r\n    function getAllJobs() public view returns(uint256[] memory){\r\n        return owner2uniq[msg.sender];\r\n    }\r\n\r\n    function getActiveStatus(uint256 uniq) public view returns(bool){\r\n        return jobs_db[uniq].acceptStatus;\r\n    }\r\n\r\n    function getRenderStatus(uint256 uniq) public view returns(bool){\r\n        return jobs_db[uniq].render;\r\n    }\r\n\r\n    function getOwner(uint256 uniq) public view returns(address){\r\n        return jobs_db[uniq].owner;\r\n    }\r\n\r\n    function getInterest(uint256 uniq) public view returns(string[] memory) {\r\n        return jobs_db[uniq].cat;   \r\n    }\r\n\r\n    function amIApplicant(address appl,uint256 uniq) public view returns (bool) {\r\n        for(uint256 i=0;i<jobs_db[uniq].applicants.length;i++){\r\n            if(appl == jobs_db[uniq].applicants[i]){\r\n                return true;\r\n            }\r\n        }\r\n        return false;\r\n    }\r\n\r\n    function returnAppDetails(uint256 uniq, address usersDb) public view returns (appDets[] memory){\r\n        appDets[] memory rets = new appDets[](jobs_db[uniq].applicants.length);\r\n        for(uint256 i=0;i<jobs_db[uniq].applicants.length;i++){\r\n            rets[i].name = Users(usersDb).GetUName(jobs_db[uniq].applicants[i]);\r\n            rets[i].email = Users(usersDb).GetEmail(jobs_db[uniq].applicants[i]);\r\n            rets[i].add = jobs_db[uniq].applicants[i];\r\n            rets[i].active = Users(usersDb).GetActiveGigsCount(jobs_db[uniq].applicants[i]);\r\n            rets[i].index = i;\r\n        }\r\n        return rets;\r\n\r\n    }\r\n\r\n}",
  "sourcePath": "C:\\Users\\Rithvik\\Desktop\\EthForAll\\workezz\\contracts\\Jobs.sol",
  "compiler": {
    "name": "solc",
    "version": "0.8.18+commit.87f61d96.Emscripten.clang"
  },
  "schemaVersion": "3.4.11",
  "updatedAt": "2023-02-19T14:32:36.562Z",
  "networkType": "ethereum",
  "devdoc": {
    "kind": "dev",
    "methods": {},
    "version": 1
  },
  "userdoc": {
    "kind": "user",
    "methods": {},
    "version": 1
  }
}