{
  "contractName": "Users",
  "abi": [
    {
      "inputs": [
        {
          "internalType": "address",
          "name": "",
          "type": "address"
        }
      ],
      "name": "user_id_map",
      "outputs": [
        {
          "internalType": "string",
          "name": "name",
          "type": "string"
        },
        {
          "internalType": "string",
          "name": "email",
          "type": "string"
        },
        {
          "internalType": "string",
          "name": "phoneno",
          "type": "string"
        },
        {
          "internalType": "string",
          "name": "country",
          "type": "string"
        },
        {
          "internalType": "string",
          "name": "linkedin",
          "type": "string"
        },
        {
          "internalType": "bool",
          "name": "isTrue",
          "type": "bool"
        }
      ],
      "stateMutability": "view",
      "type": "function",
      "constant": true
    },
    {
      "inputs": [
        {
          "internalType": "string",
          "name": "name",
          "type": "string"
        },
        {
          "internalType": "string",
          "name": "email",
          "type": "string"
        },
        {
          "internalType": "string",
          "name": "phoneno",
          "type": "string"
        },
        {
          "internalType": "string",
          "name": "country",
          "type": "string"
        },
        {
          "internalType": "string",
          "name": "linkedin",
          "type": "string"
        },
        {
          "internalType": "string[]",
          "name": "interest",
          "type": "string[]"
        }
      ],
      "name": "AddUser",
      "outputs": [],
      "stateMutability": "nonpayable",
      "type": "function"
    },
    {
      "inputs": [],
      "name": "ValidateUser",
      "outputs": [
        {
          "internalType": "bool",
          "name": "",
          "type": "bool"
        }
      ],
      "stateMutability": "view",
      "type": "function",
      "constant": true
    },
    {
      "inputs": [
        {
          "internalType": "address",
          "name": "userAdd",
          "type": "address"
        }
      ],
      "name": "GetUName",
      "outputs": [
        {
          "internalType": "string",
          "name": "",
          "type": "string"
        }
      ],
      "stateMutability": "view",
      "type": "function",
      "constant": true
    },
    {
      "inputs": [
        {
          "internalType": "address",
          "name": "userAdd",
          "type": "address"
        }
      ],
      "name": "GetEmail",
      "outputs": [
        {
          "internalType": "string",
          "name": "",
          "type": "string"
        }
      ],
      "stateMutability": "view",
      "type": "function",
      "constant": true
    },
    {
      "inputs": [
        {
          "internalType": "address",
          "name": "userAdd",
          "type": "address"
        }
      ],
      "name": "GetActiveGigsCount",
      "outputs": [
        {
          "internalType": "uint256",
          "name": "",
          "type": "uint256"
        }
      ],
      "stateMutability": "view",
      "type": "function",
      "constant": true
    },
    {
      "inputs": [],
      "name": "GetData",
      "outputs": [
        {
          "components": [
            {
              "internalType": "string",
              "name": "name",
              "type": "string"
            },
            {
              "internalType": "string",
              "name": "email",
              "type": "string"
            },
            {
              "internalType": "string",
              "name": "phoneno",
              "type": "string"
            },
            {
              "internalType": "string",
              "name": "country",
              "type": "string"
            },
            {
              "internalType": "string",
              "name": "linkedin",
              "type": "string"
            },
            {
              "internalType": "string[]",
              "name": "interest",
              "type": "string[]"
            },
            {
              "internalType": "bool",
              "name": "isTrue",
              "type": "bool"
            },
            {
              "internalType": "uint256[]",
              "name": "activeGigs",
              "type": "uint256[]"
            },
            {
              "internalType": "uint256[]",
              "name": "appliedGigs",
              "type": "uint256[]"
            },
            {
              "internalType": "uint256[]",
              "name": "pastGigs",
              "type": "uint256[]"
            }
          ],
          "internalType": "struct Users.user",
          "name": "",
          "type": "tuple"
        }
      ],
      "stateMutability": "view",
      "type": "function",
      "constant": true
    },
    {
      "inputs": [],
      "name": "GetAppliedJobs",
      "outputs": [
        {
          "internalType": "uint256[]",
          "name": "",
          "type": "uint256[]"
        }
      ],
      "stateMutability": "view",
      "type": "function",
      "constant": true
    },
    {
      "inputs": [],
      "name": "GetActiveJobs",
      "outputs": [
        {
          "internalType": "uint256[]",
          "name": "",
          "type": "uint256[]"
        }
      ],
      "stateMutability": "view",
      "type": "function",
      "constant": true
    },
    {
      "inputs": [],
      "name": "GetPastJobs",
      "outputs": [
        {
          "internalType": "uint256[]",
          "name": "",
          "type": "uint256[]"
        }
      ],
      "stateMutability": "view",
      "type": "function",
      "constant": true
    },
    {
      "inputs": [
        {
          "internalType": "uint256",
          "name": "gig",
          "type": "uint256"
        },
        {
          "internalType": "address",
          "name": "jobaddress",
          "type": "address"
        }
      ],
      "name": "ApplyJob",
      "outputs": [],
      "stateMutability": "nonpayable",
      "type": "function"
    },
    {
      "inputs": [
        {
          "internalType": "uint256",
          "name": "userindex",
          "type": "uint256"
        },
        {
          "internalType": "uint256",
          "name": "jobindex",
          "type": "uint256"
        },
        {
          "internalType": "address",
          "name": "jobaddress",
          "type": "address"
        }
      ],
      "name": "AcceptJob",
      "outputs": [],
      "stateMutability": "nonpayable",
      "type": "function"
    },
    {
      "inputs": [
        {
          "internalType": "uint256",
          "name": "gig",
          "type": "uint256"
        },
        {
          "internalType": "address",
          "name": "clientaddress",
          "type": "address"
        }
      ],
      "name": "UpdateJobStatus",
      "outputs": [],
      "stateMutability": "nonpayable",
      "type": "function"
    },
    {
      "inputs": [
        {
          "internalType": "uint256",
          "name": "jobindex",
          "type": "uint256"
        },
        {
          "internalType": "address",
          "name": "jobaddress",
          "type": "address"
        }
      ],
      "name": "CloseJob",
      "outputs": [],
      "stateMutability": "nonpayable",
      "type": "function"
    },
    {
      "inputs": [
        {
          "internalType": "uint256",
          "name": "gig",
          "type": "uint256"
        },
        {
          "internalType": "address",
          "name": "clientaddress",
          "type": "address"
        }
      ],
      "name": "CloseJobStatus",
      "outputs": [],
      "stateMutability": "nonpayable",
      "type": "function"
    }
  ],
  "bytecode": "0x608060405234801561001057600080fd5b50612ac9806100206000396000f3fe608060405234801561001057600080fd5b50600436106100f55760003560e01c80639066c02711610097578063be95793d11610066578063be95793d14610272578063c7f1148b1461028e578063cb375754146102aa578063eceaf834146102df576100f5565b80639066c027146101d8578063abbefaee146101f4578063af530c6b14610224578063b9f3784c14610254576100f5565b806376b8e528116100d357806376b8e52814610150578063793716311461016e5780637d5433d91461018a5780637dae5011146101ba576100f5565b806323920580146100fa5780634689e2991461011857806349fa18fe14610134575b600080fd5b6101026102fd565b60405161010f9190611c83565b60405180910390f35b610132600480360381019061012d9190611d46565b610353565b005b61014e60048036038101906101499190611fb2565b610486565b005b6101586106c9565b6040516101659190612407565b60405180910390f35b61018860048036038101906101839190612429565b610c52565b005b6101a4600480360381019061019f919061247c565b610d20565b6040516101b191906124b8565b60405180910390f35b6101c2610d6e565b6040516101cf9190612542565b60405180910390f35b6101f260048036038101906101ed9190611d46565b610e61565b005b61020e6004803603810190610209919061247c565b610f2c565b60405161021b91906125ae565b60405180910390f35b61023e6004803603810190610239919061247c565b610fff565b60405161024b91906125ae565b60405180910390f35b61025c6110d2565b6040516102699190612542565b60405180910390f35b61028c60048036038101906102879190611d46565b6111c5565b005b6102a860048036038101906102a39190611d46565b61148d565b005b6102c460048036038101906102bf919061247c565b611755565b6040516102d6969594939291906125d0565b60405180910390f35b6102e7611a46565b6040516102f49190612542565b60405180910390f35b60008060003373ffffffffffffffffffffffffffffffffffffffff1673ffffffffffffffffffffffffffffffffffffffff16815260200190815260200160002060060160009054906101000a900460ff16905090565b6000803373ffffffffffffffffffffffffffffffffffffffff1673ffffffffffffffffffffffffffffffffffffffff16815260200190815260200160002060060160009054906101000a900460ff166103af576103ae612654565b5b6000803373ffffffffffffffffffffffffffffffffffffffff1673ffffffffffffffffffffffffffffffffffffffff1681526020019081526020016000206008018290806001815401808255809150506001900390600052602060002001600090919091909150558073ffffffffffffffffffffffffffffffffffffffff1663597ea00e836040518263ffffffff1660e01b815260040161045091906124b8565b600060405180830381600087803b15801561046a57600080fd5b505af115801561047e573d6000803e3d6000fd5b505050505050565b856000803373ffffffffffffffffffffffffffffffffffffffff1673ffffffffffffffffffffffffffffffffffffffff16815260200190815260200160002060000190816104d4919061288f565b50846000803373ffffffffffffffffffffffffffffffffffffffff1673ffffffffffffffffffffffffffffffffffffffff1681526020019081526020016000206001019081610523919061288f565b50836000803373ffffffffffffffffffffffffffffffffffffffff1673ffffffffffffffffffffffffffffffffffffffff1681526020019081526020016000206002019081610572919061288f565b50826000803373ffffffffffffffffffffffffffffffffffffffff1673ffffffffffffffffffffffffffffffffffffffff16815260200190815260200160002060030190816105c1919061288f565b50816000803373ffffffffffffffffffffffffffffffffffffffff1673ffffffffffffffffffffffffffffffffffffffff1681526020019081526020016000206004019081610610919061288f565b50806000803373ffffffffffffffffffffffffffffffffffffffff1673ffffffffffffffffffffffffffffffffffffffff1681526020019081526020016000206005019080519060200190610666929190611b39565b5060016000803373ffffffffffffffffffffffffffffffffffffffff1673ffffffffffffffffffffffffffffffffffffffff16815260200190815260200160002060060160006101000a81548160ff021916908315150217905550505050505050565b6106d1611b92565b6000803373ffffffffffffffffffffffffffffffffffffffff1673ffffffffffffffffffffffffffffffffffffffff16815260200190815260200160002060060160009054906101000a900460ff1661072d5761072c612654565b5b6000803373ffffffffffffffffffffffffffffffffffffffff1673ffffffffffffffffffffffffffffffffffffffff16815260200190815260200160002060405180610140016040529081600082018054610787906126b2565b80601f01602080910402602001604051908101604052809291908181526020018280546107b3906126b2565b80156108005780601f106107d557610100808354040283529160200191610800565b820191906000526020600020905b8154815290600101906020018083116107e357829003601f168201915b50505050508152602001600182018054610819906126b2565b80601f0160208091040260200160405190810160405280929190818152602001828054610845906126b2565b80156108925780601f1061086757610100808354040283529160200191610892565b820191906000526020600020905b81548152906001019060200180831161087557829003601f168201915b505050505081526020016002820180546108ab906126b2565b80601f01602080910402602001604051908101604052809291908181526020018280546108d7906126b2565b80156109245780601f106108f957610100808354040283529160200191610924565b820191906000526020600020905b81548152906001019060200180831161090757829003601f168201915b5050505050815260200160038201805461093d906126b2565b80601f0160208091040260200160405190810160405280929190818152602001828054610969906126b2565b80156109b65780601f1061098b576101008083540402835291602001916109b6565b820191906000526020600020905b81548152906001019060200180831161099957829003601f168201915b505050505081526020016004820180546109cf906126b2565b80601f01602080910402602001604051908101604052809291908181526020018280546109fb906126b2565b8015610a485780601f10610a1d57610100808354040283529160200191610a48565b820191906000526020600020905b815481529060010190602001808311610a2b57829003601f168201915b5050505050815260200160058201805480602002602001604051908101604052809291908181526020016000905b82821015610b22578382906000526020600020018054610a95906126b2565b80601f0160208091040260200160405190810160405280929190818152602001828054610ac1906126b2565b8015610b0e5780601f10610ae357610100808354040283529160200191610b0e565b820191906000526020600020905b815481529060010190602001808311610af157829003601f168201915b505050505081526020019060010190610a76565b5050505081526020016006820160009054906101000a900460ff1615151515815260200160078201805480602002602001604051908101604052809291908181526020018280548015610b9457602002820191906000526020600020905b815481526020019060010190808311610b80575b5050505050815260200160088201805480602002602001604051908101604052809291908181526020018280548015610bec57602002820191906000526020600020905b815481526020019060010190808311610bd8575b5050505050815260200160098201805480602002602001604051908101604052809291908181526020018280548015610c4457602002820191906000526020600020905b815481526020019060010190808311610c30575b505050505081525050905090565b6000803373ffffffffffffffffffffffffffffffffffffffff1673ffffffffffffffffffffffffffffffffffffffff16815260200190815260200160002060060160009054906101000a900460ff16610cae57610cad612654565b5b8073ffffffffffffffffffffffffffffffffffffffff16635a163bda84846040518363ffffffff1660e01b8152600401610ce9929190612961565b600060405180830381600087803b158015610d0357600080fd5b505af1158015610d17573d6000803e3d6000fd5b50505050505050565b60008060008373ffffffffffffffffffffffffffffffffffffffff1673ffffffffffffffffffffffffffffffffffffffff168152602001908152602001600020600901805490509050919050565b60606000803373ffffffffffffffffffffffffffffffffffffffff1673ffffffffffffffffffffffffffffffffffffffff16815260200190815260200160002060060160009054906101000a900460ff16610dcc57610dcb612654565b5b6000803373ffffffffffffffffffffffffffffffffffffffff1673ffffffffffffffffffffffffffffffffffffffff168152602001908152602001600020600901805480602002602001604051908101604052809291908181526020018280548015610e5757602002820191906000526020600020905b815481526020019060010190808311610e43575b5050505050905090565b6000803373ffffffffffffffffffffffffffffffffffffffff1673ffffffffffffffffffffffffffffffffffffffff16815260200190815260200160002060060160009054906101000a900460ff16610ebd57610ebc612654565b5b8073ffffffffffffffffffffffffffffffffffffffff16632f565ba9836040518263ffffffff1660e01b8152600401610ef691906124b8565b600060405180830381600087803b158015610f1057600080fd5b505af1158015610f24573d6000803e3d6000fd5b505050505050565b60606000808373ffffffffffffffffffffffffffffffffffffffff1673ffffffffffffffffffffffffffffffffffffffff1681526020019081526020016000206001018054610f7a906126b2565b80601f0160208091040260200160405190810160405280929190818152602001828054610fa6906126b2565b8015610ff35780601f10610fc857610100808354040283529160200191610ff3565b820191906000526020600020905b815481529060010190602001808311610fd657829003601f168201915b50505050509050919050565b60606000808373ffffffffffffffffffffffffffffffffffffffff1673ffffffffffffffffffffffffffffffffffffffff168152602001908152602001600020600001805461104d906126b2565b80601f0160208091040260200160405190810160405280929190818152602001828054611079906126b2565b80156110c65780601f1061109b576101008083540402835291602001916110c6565b820191906000526020600020905b8154815290600101906020018083116110a957829003601f168201915b50505050509050919050565b60606000803373ffffffffffffffffffffffffffffffffffffffff1673ffffffffffffffffffffffffffffffffffffffff16815260200190815260200160002060060160009054906101000a900460ff166111305761112f612654565b5b6000803373ffffffffffffffffffffffffffffffffffffffff1673ffffffffffffffffffffffffffffffffffffffff1681526020019081526020016000206007018054806020026020016040519081016040528092919081815260200182805480156111bb57602002820191906000526020600020905b8154815260200190600101908083116111a7575b5050505050905090565b6000803273ffffffffffffffffffffffffffffffffffffffff1673ffffffffffffffffffffffffffffffffffffffff16815260200190815260200160002060060160009054906101000a900460ff1661122157611220612654565b5b60008060008373ffffffffffffffffffffffffffffffffffffffff1673ffffffffffffffffffffffffffffffffffffffff16815260200190815260200160002060070180549050905060005b81811015611487576000808473ffffffffffffffffffffffffffffffffffffffff1673ffffffffffffffffffffffffffffffffffffffff16815260200190815260200160002060070181815481106112c8576112c761298a565b5b90600052602060002001548403611474576000808473ffffffffffffffffffffffffffffffffffffffff1673ffffffffffffffffffffffffffffffffffffffff1681526020019081526020016000206009018490806001815401808255809150506001900390600052602060002001600090919091909150556000808473ffffffffffffffffffffffffffffffffffffffff1673ffffffffffffffffffffffffffffffffffffffff16815260200190815260200160002060070160018361138f91906129e8565b815481106113a05761139f61298a565b5b90600052602060002001546000808573ffffffffffffffffffffffffffffffffffffffff1673ffffffffffffffffffffffffffffffffffffffff16815260200190815260200160002060070182815481106113fe576113fd61298a565b5b90600052602060002001819055506000808473ffffffffffffffffffffffffffffffffffffffff1673ffffffffffffffffffffffffffffffffffffffff16815260200190815260200160002060070180548061145d5761145c612a1c565b5b600190038181906000526020600020016000905590555b808061147f90612a4b565b91505061126d565b50505050565b6000803273ffffffffffffffffffffffffffffffffffffffff1673ffffffffffffffffffffffffffffffffffffffff16815260200190815260200160002060060160009054906101000a900460ff166114e9576114e8612654565b5b60008060008373ffffffffffffffffffffffffffffffffffffffff1673ffffffffffffffffffffffffffffffffffffffff16815260200190815260200160002060080180549050905060005b8181101561174f576000808473ffffffffffffffffffffffffffffffffffffffff1673ffffffffffffffffffffffffffffffffffffffff16815260200190815260200160002060080181815481106115905761158f61298a565b5b9060005260206000200154840361173c576000808473ffffffffffffffffffffffffffffffffffffffff1673ffffffffffffffffffffffffffffffffffffffff1681526020019081526020016000206007018490806001815401808255809150506001900390600052602060002001600090919091909150556000808473ffffffffffffffffffffffffffffffffffffffff1673ffffffffffffffffffffffffffffffffffffffff16815260200190815260200160002060080160018361165791906129e8565b815481106116685761166761298a565b5b90600052602060002001546000808573ffffffffffffffffffffffffffffffffffffffff1673ffffffffffffffffffffffffffffffffffffffff16815260200190815260200160002060080182815481106116c6576116c561298a565b5b90600052602060002001819055506000808473ffffffffffffffffffffffffffffffffffffffff1673ffffffffffffffffffffffffffffffffffffffff16815260200190815260200160002060080180548061172557611724612a1c565b5b600190038181906000526020600020016000905590555b808061174790612a4b565b915050611535565b50505050565b6000602052806000526040600020600091509050806000018054611778906126b2565b80601f01602080910402602001604051908101604052809291908181526020018280546117a4906126b2565b80156117f15780601f106117c6576101008083540402835291602001916117f1565b820191906000526020600020905b8154815290600101906020018083116117d457829003601f168201915b505050505090806001018054611806906126b2565b80601f0160208091040260200160405190810160405280929190818152602001828054611832906126b2565b801561187f5780601f106118545761010080835404028352916020019161187f565b820191906000526020600020905b81548152906001019060200180831161186257829003601f168201915b505050505090806002018054611894906126b2565b80601f01602080910402602001604051908101604052809291908181526020018280546118c0906126b2565b801561190d5780601f106118e25761010080835404028352916020019161190d565b820191906000526020600020905b8154815290600101906020018083116118f057829003601f168201915b505050505090806003018054611922906126b2565b80601f016020809104026020016040519081016040528092919081815260200182805461194e906126b2565b801561199b5780601f106119705761010080835404028352916020019161199b565b820191906000526020600020905b81548152906001019060200180831161197e57829003601f168201915b5050505050908060040180546119b0906126b2565b80601f01602080910402602001604051908101604052809291908181526020018280546119dc906126b2565b8015611a295780601f106119fe57610100808354040283529160200191611a29565b820191906000526020600020905b815481529060010190602001808311611a0c57829003601f168201915b5050505050908060060160009054906101000a900460ff16905086565b60606000803373ffffffffffffffffffffffffffffffffffffffff1673ffffffffffffffffffffffffffffffffffffffff16815260200190815260200160002060060160009054906101000a900460ff16611aa457611aa3612654565b5b6000803373ffffffffffffffffffffffffffffffffffffffff1673ffffffffffffffffffffffffffffffffffffffff168152602001908152602001600020600801805480602002602001604051908101604052809291908181526020018280548015611b2f57602002820191906000526020600020905b815481526020019060010190808311611b1b575b5050505050905090565b828054828255906000526020600020908101928215611b81579160200282015b82811115611b80578251829081611b70919061288f565b5091602001919060010190611b59565b5b509050611b8e9190611be7565b5090565b6040518061014001604052806060815260200160608152602001606081526020016060815260200160608152602001606081526020016000151581526020016060815260200160608152602001606081525090565b5b80821115611c075760008181611bfe9190611c0b565b50600101611be8565b5090565b508054611c17906126b2565b6000825580601f10611c295750611c48565b601f016020900490600052602060002090810190611c479190611c4b565b5b50565b5b80821115611c64576000816000905550600101611c4c565b5090565b60008115159050919050565b611c7d81611c68565b82525050565b6000602082019050611c986000830184611c74565b92915050565b6000604051905090565b600080fd5b600080fd5b6000819050919050565b611cc581611cb2565b8114611cd057600080fd5b50565b600081359050611ce281611cbc565b92915050565b600073ffffffffffffffffffffffffffffffffffffffff82169050919050565b6000611d1382611ce8565b9050919050565b611d2381611d08565b8114611d2e57600080fd5b50565b600081359050611d4081611d1a565b92915050565b60008060408385031215611d5d57611d5c611ca8565b5b6000611d6b85828601611cd3565b9250506020611d7c85828601611d31565b9150509250929050565b600080fd5b600080fd5b6000601f19601f8301169050919050565b7f4e487b7100000000000000000000000000000000000000000000000000000000600052604160045260246000fd5b611dd982611d90565b810181811067ffffffffffffffff82111715611df857611df7611da1565b5b80604052505050565b6000611e0b611c9e565b9050611e178282611dd0565b919050565b600067ffffffffffffffff821115611e3757611e36611da1565b5b611e4082611d90565b9050602081019050919050565b82818337600083830152505050565b6000611e6f611e6a84611e1c565b611e01565b905082815260208101848484011115611e8b57611e8a611d8b565b5b611e96848285611e4d565b509392505050565b600082601f830112611eb357611eb2611d86565b5b8135611ec3848260208601611e5c565b91505092915050565b600067ffffffffffffffff821115611ee757611ee6611da1565b5b602082029050602081019050919050565b600080fd5b6000611f10611f0b84611ecc565b611e01565b90508083825260208201905060208402830185811115611f3357611f32611ef8565b5b835b81811015611f7a57803567ffffffffffffffff811115611f5857611f57611d86565b5b808601611f658982611e9e565b85526020850194505050602081019050611f35565b5050509392505050565b600082601f830112611f9957611f98611d86565b5b8135611fa9848260208601611efd565b91505092915050565b60008060008060008060c08789031215611fcf57611fce611ca8565b5b600087013567ffffffffffffffff811115611fed57611fec611cad565b5b611ff989828a01611e9e565b965050602087013567ffffffffffffffff81111561201a57612019611cad565b5b61202689828a01611e9e565b955050604087013567ffffffffffffffff81111561204757612046611cad565b5b61205389828a01611e9e565b945050606087013567ffffffffffffffff81111561207457612073611cad565b5b61208089828a01611e9e565b935050608087013567ffffffffffffffff8111156120a1576120a0611cad565b5b6120ad89828a01611e9e565b92505060a087013567ffffffffffffffff8111156120ce576120cd611cad565b5b6120da89828a01611f84565b9150509295509295509295565b600081519050919050565b600082825260208201905092915050565b60005b83811015612121578082015181840152602081019050612106565b60008484015250505050565b6000612138826120e7565b61214281856120f2565b9350612152818560208601612103565b61215b81611d90565b840191505092915050565b600081519050919050565b600082825260208201905092915050565b6000819050602082019050919050565b600061219e838361212d565b905092915050565b6000602082019050919050565b60006121be82612166565b6121c88185612171565b9350836020820285016121da85612182565b8060005b8581101561221657848403895281516121f78582612192565b9450612202836121a6565b925060208a019950506001810190506121de565b50829750879550505050505092915050565b61223181611c68565b82525050565b600081519050919050565b600082825260208201905092915050565b6000819050602082019050919050565b61226c81611cb2565b82525050565b600061227e8383612263565b60208301905092915050565b6000602082019050919050565b60006122a282612237565b6122ac8185612242565b93506122b783612253565b8060005b838110156122e85781516122cf8882612272565b97506122da8361228a565b9250506001810190506122bb565b5085935050505092915050565b6000610140830160008301518482036000860152612313828261212d565b9150506020830151848203602086015261232d828261212d565b91505060408301518482036040860152612347828261212d565b91505060608301518482036060860152612361828261212d565b9150506080830151848203608086015261237b828261212d565b91505060a083015184820360a086015261239582826121b3565b91505060c08301516123aa60c0860182612228565b5060e083015184820360e08601526123c28282612297565b9150506101008301518482036101008601526123de8282612297565b9150506101208301518482036101208601526123fa8282612297565b9150508091505092915050565b6000602082019050818103600083015261242181846122f5565b905092915050565b60008060006060848603121561244257612441611ca8565b5b600061245086828701611cd3565b935050602061246186828701611cd3565b925050604061247286828701611d31565b9150509250925092565b60006020828403121561249257612491611ca8565b5b60006124a084828501611d31565b91505092915050565b6124b281611cb2565b82525050565b60006020820190506124cd60008301846124a9565b92915050565b600082825260208201905092915050565b60006124ef82612237565b6124f981856124d3565b935061250483612253565b8060005b8381101561253557815161251c8882612272565b97506125278361228a565b925050600181019050612508565b5085935050505092915050565b6000602082019050818103600083015261255c81846124e4565b905092915050565b600082825260208201905092915050565b6000612580826120e7565b61258a8185612564565b935061259a818560208601612103565b6125a381611d90565b840191505092915050565b600060208201905081810360008301526125c88184612575565b905092915050565b600060c08201905081810360008301526125ea8189612575565b905081810360208301526125fe8188612575565b905081810360408301526126128187612575565b905081810360608301526126268186612575565b9050818103608083015261263a8185612575565b905061264960a0830184611c74565b979650505050505050565b7f4e487b7100000000000000000000000000000000000000000000000000000000600052600160045260246000fd5b7f4e487b7100000000000000000000000000000000000000000000000000000000600052602260045260246000fd5b600060028204905060018216806126ca57607f821691505b6020821081036126dd576126dc612683565b5b50919050565b60008190508160005260206000209050919050565b60006020601f8301049050919050565b600082821b905092915050565b6000600883026127457fffffffffffffffffffffffffffffffffffffffffffffffffffffffffffffffff82612708565b61274f8683612708565b95508019841693508086168417925050509392505050565b6000819050919050565b600061278c61278761278284611cb2565b612767565b611cb2565b9050919050565b6000819050919050565b6127a683612771565b6127ba6127b282612793565b848454612715565b825550505050565b600090565b6127cf6127c2565b6127da81848461279d565b505050565b5b818110156127fe576127f36000826127c7565b6001810190506127e0565b5050565b601f82111561284357612814816126e3565b61281d846126f8565b8101602085101561282c578190505b612840612838856126f8565b8301826127df565b50505b505050565b600082821c905092915050565b600061286660001984600802612848565b1980831691505092915050565b600061287f8383612855565b9150826002028217905092915050565b612898826120e7565b67ffffffffffffffff8111156128b1576128b0611da1565b5b6128bb82546126b2565b6128c6828285612802565b600060209050601f8311600181146128f957600084156128e7578287015190505b6128f18582612873565b865550612959565b601f198416612907866126e3565b60005b8281101561292f5784890151825560018201915060208501945060208101905061290a565b8683101561294c5784890151612948601f891682612855565b8355505b6001600288020188555050505b505050505050565b600060408201905061297660008301856124a9565b61298360208301846124a9565b9392505050565b7f4e487b7100000000000000000000000000000000000000000000000000000000600052603260045260246000fd5b7f4e487b7100000000000000000000000000000000000000000000000000000000600052601160045260246000fd5b60006129f382611cb2565b91506129fe83611cb2565b9250828203905081811115612a1657612a156129b9565b5b92915050565b7f4e487b7100000000000000000000000000000000000000000000000000000000600052603160045260246000fd5b6000612a5682611cb2565b91507fffffffffffffffffffffffffffffffffffffffffffffffffffffffffffffffff8203612a8857612a876129b9565b5b60018201905091905056fea26469706673582212206e3d88fb6ec2c1c7050cd22e4eb4a809da9dc53a935e0c68450d6fb50e2143e564736f6c63430008120033",
  "immutableReferences": {},
  "source": "// SPDX-License-Identifier: MIT\r\npragma solidity >=0.4.22 <0.9.0;\r\n\r\nimport './Jobs.sol';\r\n\r\ncontract Users{\r\n    \r\n    struct user{\r\n\r\n        string name;\r\n        string email;\r\n        string phoneno;\r\n        string country;\r\n        string linkedin;\r\n        string[] interest;\r\n        bool isTrue;\r\n\r\n        //Employee Side\r\n        uint256[] activeGigs;\r\n        uint256[] appliedGigs;\r\n        uint256[] pastGigs;\r\n    }\r\n\r\n    mapping(address=>user) public user_id_map;\r\n\r\n    //Adding a New User\r\n    function AddUser(string memory name,string memory email, string memory phoneno,string memory country,string memory linkedin,string[] memory interest) public\r\n    {\r\n        // assert(!user_id_map[msg.sender].isTrue);\r\n        user_id_map[msg.sender].name = name;\r\n        user_id_map[msg.sender].email = email;\r\n        user_id_map[msg.sender].phoneno = phoneno;\r\n        user_id_map[msg.sender].country = country;\r\n        user_id_map[msg.sender].linkedin = linkedin;\r\n        user_id_map[msg.sender].interest = interest;\r\n        user_id_map[msg.sender].isTrue = true;\r\n    }\r\n\r\n    function ValidateUser() public view returns (bool) {\r\n        return(user_id_map[msg.sender].isTrue);\r\n    }\r\n\r\n    function GetUName(address userAdd) public view returns(string memory){\r\n        return(user_id_map[userAdd].name);\r\n    }\r\n    \r\n    function GetEmail(address userAdd) public view returns(string memory){\r\n        return(user_id_map[userAdd].email);\r\n    }\r\n\r\n    function GetActiveGigsCount(address userAdd)public view returns(uint256) {\r\n        return(user_id_map[userAdd].pastGigs.length);\r\n    }\r\n\r\n    // Get All The Info of The User\r\n    function GetData() public view returns (user memory)\r\n    {\r\n        assert(user_id_map[msg.sender].isTrue);\r\n        return user_id_map[msg.sender];\r\n    }\r\n\r\n    //Get Applied Job Info\r\n    function GetAppliedJobs() public view returns (uint256[] memory)\r\n    {\r\n        assert(user_id_map[msg.sender].isTrue);\r\n        return user_id_map[msg.sender].appliedGigs;\r\n    }\r\n\r\n    //Get Active Job Info\r\n    function GetActiveJobs() public view returns (uint256[] memory)\r\n    {\r\n        assert(user_id_map[msg.sender].isTrue);\r\n        return user_id_map[msg.sender].activeGigs;\r\n    }\r\n\r\n    //Get Past Job Info\r\n    function GetPastJobs() public view returns (uint256[] memory)\r\n    {\r\n        assert(user_id_map[msg.sender].isTrue);\r\n        return user_id_map[msg.sender].pastGigs;\r\n    }\r\n\r\n    //Employee Applying For a Job\r\n    function ApplyJob(uint256 gig,address jobaddress) public{\r\n        assert(user_id_map[msg.sender].isTrue);\r\n        user_id_map[msg.sender].appliedGigs.push(gig);\r\n        Jobs(jobaddress).updateonApply(gig);    \r\n    }\r\n\r\n        \r\n    //Accepting An Employee For A Gig (Employer side)\r\n    function AcceptJob(uint256 userindex,uint256 jobindex,address jobaddress) public{\r\n        assert(user_id_map[msg.sender].isTrue);\r\n        Jobs(jobaddress).updateonAccept(userindex,jobindex);\r\n    }\r\n\r\n    //Employee Job Status Update\r\n    function UpdateJobStatus(uint256 gig,address clientaddress) public{\r\n        assert(user_id_map[tx.origin].isTrue);  \r\n\r\n        uint256 length = user_id_map[clientaddress].appliedGigs.length;\r\n        for(uint256 i=0;i<length;i++)\r\n        {\r\n            if(gig == user_id_map[clientaddress].appliedGigs[i])\r\n            {\r\n                user_id_map[clientaddress].activeGigs.push(gig);\r\n                user_id_map[clientaddress].appliedGigs[i] = user_id_map[clientaddress].appliedGigs[length-1];\r\n                user_id_map[clientaddress].appliedGigs.pop();\r\n            }\r\n        }\r\n    }\r\n\r\n    //Closing The Gig (Employer side)\r\n    function CloseJob(uint256 jobindex,address jobaddress) public{\r\n        assert(user_id_map[msg.sender].isTrue);\r\n        Jobs(jobaddress).taskDone(jobindex);\r\n    }\r\n\r\n    //Finishing The Job on Employee Side\r\n    function CloseJobStatus(uint256 gig,address clientaddress) public{\r\n        assert(user_id_map[tx.origin].isTrue);  \r\n\r\n        uint256 length = user_id_map[clientaddress].activeGigs.length;\r\n        for(uint256 i=0;i<length;i++)\r\n        {\r\n            if(gig == user_id_map[clientaddress].activeGigs[i])\r\n            {\r\n                user_id_map[clientaddress].pastGigs.push(gig);\r\n                user_id_map[clientaddress].activeGigs[i] = user_id_map[clientaddress].activeGigs[length-1];\r\n                user_id_map[clientaddress].activeGigs.pop();\r\n            }\r\n        }\r\n    }\r\n}",
  "sourcePath": "C:\\Users\\Rithvik\\Desktop\\EthForAll\\workezz\\contracts\\Users.sol",
  "compiler": {
    "name": "solc",
    "version": "0.8.18+commit.87f61d96.Emscripten.clang"
  },
  "schemaVersion": "3.4.11",
  "updatedAt": "2023-02-19T14:32:36.545Z",
  "networkType": "ethereum",
  "devdoc": {
    "kind": "dev",
    "methods": {},
    "version": 1
  },
  "userdoc": {
    "kind": "user",
    "methods": {},
    "version": 1
  }
}